:100000000C9463000C948B000C948B000C948B006C
:100010000C948B000C948B000C948B000C94F607C2
:100020000C948B000C948B000C948B000C948B0024
:100030000C948B000C948B000C948B000C948B0014
:100040000C9452080C948B000C948B000C948B0035
:100050000C948B000C948B000C948B000C948B00F4
:100060000C949C080C948B000000000023002600D8
:10007000290000000008000201000003040700003E
:1000800000000000000000000000240027002A00FB
:10009000010204081020408001020408102001021F
:1000A0000408102000000000250028002B00040494
:1000B0000404040404040202020202020303030310
:1000C00003030200BB0911241FBECFEFD8E0DEBF3F
:1000D000CDBF11E0A0E0B1E0EEE9FFE102C0059084
:1000E0000D92A237B107D9F722E0A2E7B1E001C033
:1000F0001D92A437B207E1F710E0C3E6D0E004C0D8
:100100002197FE010E94A20EC236D107C9F70E94B4
:10011000E3090C94CD0F0C9400008F929F92AF9244
:10012000BF92CF92DF92EF92FF92CF939091000116
:10013000891761F09F3F81F0CF91FF90EF90DF90A2
:10014000CF90BF90AF909F908F900895E2ECF0E039
:10015000C491C7FDF1CF4FC080930001E2ECF0E005
:10016000C491CF3F49F3C13009F4BCC040F1C23063
:1001700081F71092B0001092B1009091B00092609F
:100180009093B0009091B10091609093B100282FAE
:1001900030E0F901E255FF4FE491F0E0EE0FFF1F70
:1001A000EC55FF4F459154915093470240934602BE
:1001B000F901E057FF4FE491E09345021CC014BCE5
:1001C00015BC94B5926094BD95B5916095BD282FEE
:1001D00030E0F901E255FF4FE491F0E0EE0FFF1F30
:1001E000EC55FF4F45915491F901E057FF4FE491D1
:1001F000E0934902C0E090E0FC01E057FF4F2491FA
:1002000082559F4FFC018491882399F090E0880FDC
:10021000991FFC01EA57FF4FA591B491FC01EC55E1
:10022000FF4F859194918FB7F894EC91E22BEC936A
:100230008FBF6B01F12CE12C60E072E18AE790E066
:10024000A70196010E94860C49015A018C2F8D7FCF
:1002500009F06AC0C23099F464E274EF80E090E083
:10026000A70196010E94860C2150310941095109CC
:1002700095E02F3F31054105510529F124F162E157
:100280007AE780E090E0A70196010E94860C215059
:10029000310941095109CC2309F491C096E02F3F5F
:1002A00031054105510579F074F08AE0B594A794C1
:1002B000979487948A95D1F7A5019401215031092B
:1002C0004109510997E08091B100887F892B809383
:1002D000B100C13009F44BC0C23009F45DC0C11196
:1002E0002BCF86C0109280001092810090918100E7
:1002F000986090938100909181009160909381002B
:10030000282F30E0F901E255FF4FE491F0E0EE0FC5
:10031000FF1FEC55FF4F45915491F901E057FF4FF6
:10032000E491E093480267CFF1E08F1A9108A108A9
:10033000B108940191E08114910481E0A806B10410
:100340006CF068E478EE81E090E0A70196010E94ED
:10035000860C215031094109510993E0C13009F05F
:10036000B8CF80918100887F892B80938100309362
:100370008900209388008FEF9FEFDC0180934E026D
:1003800090934F02A0935002B093510280916F005E
:10039000826080936F00D0CE2093B3008FEF9FEFE9
:1003A000DC0180934A0290934B02A0934C02B093DD
:1003B0004D0280917000826080937000BDCE94E009
:1003C0002F3F31054105510579F074F09AE0B5945D
:1003D000A794979487949A95D1F7A50194012150F9
:1003E00031094109510995E085B5887F892B85BD83
:1003F00027BD8FEF9FEFDC01809352029093530251
:10040000A0935402B093550280916E008260809355
:100410006E0092CE08950895AF92BF92CF92DF9270
:10042000EF92FF920F931F93CF93DF936C017B01A9
:100430008B01040F151FEB015E01AE18BF08C0173A
:10044000D10759F06991D601ED91FC910190F081AD
:10045000E02DC6010995892B79F7C501DF91CF9170
:100460001F910F91FF90EF90DF90CF90BF90AF90D2
:100470000895833081F028F4813099F08230A9F01A
:1004800008958730A9F08830C9F08430B1F48091A4
:1004900080008F7D03C0809180008F7780938000E3
:1004A000089584B58F7784BD089584B58F7DFBCF83
:1004B0008091B0008F778093B00008958091B00054
:1004C0008F7DF9CFCF93DF93282F30E0F901EE58DD
:1004D000FF4F8491F901E057FF4FD491F901E255A4
:1004E000FF4FC491CC23A1F081110E943902EC2F5F
:1004F000F0E0EE0FFF1FE859FF4FA591B491EC918A
:10050000ED2381E090E009F480E0DF91CF91089540
:1005100080E090E0FACF1F93CF93DF93282F30E055
:10052000F901EE58FF4F8491F901E057FF4FD49144
:10053000F901E255FF4FC491CC23A9F0162F811188
:100540000E943902EC2FF0E0EE0FFF1FEC55FF4F39
:10055000A591B4918FB7F894EC91111108C0D09582
:10056000DE23DC938FBFDF91CF911F910895DE2BA7
:10057000F8CF9091000189130BC0E2ECF0E0E49118
:100580009FEF90930001E13049F028F0E23061F0F4
:1005900060E00C948B0210926E00FACF90916F0085
:1005A0009D7F90936F00F4CF909170009D7F90930A
:1005B000700091E09093B0009091B100987F9460AA
:1005C0009093B1001092B300E3CF3FB7F8948091BD
:1005D000290290912A02A0912B02B0912C0226B5FB
:1005E000A89B05C02F3F19F00196A11DB11D3FBF6B
:1005F000BA2FA92F982F8827BC01CD01620F711D3A
:10060000811D911D42E0660F771F881F991F4A9533
:10061000D1F708958F929F92AF92BF92CF92DF92BF
:10062000EF92FF924B015C010E94E5026B017C019D
:100630000E94E5026C197D098E099F09683E73408E
:1006400081059105A8F321E0821A9108A108B1085B
:1006500088EEC80E83E0D81EE11CF11C81149104C1
:10066000A104B10429F7FF90EF90DF90CF90BF90E5
:10067000AF909F908F9008952FB7F89460912502C6
:100680007091260280912702909128022FBF089531
:100690002091DA01260F3327331F21323105ECF484
:1006A0002091FE01FC0190E080E0243069F082E0BE
:1006B0000895A091DA012191AC0146545E4FA40F38
:1006C000B52FB11D2C930196861798F38091DA010E
:1006D000680F6093DA0180E0089581E00895109238
:1006E000FE0181E0809300021092FF0161E082E14F
:1006F0000E948B0261E083E10E948B02E9EBF0E053
:1007000080818E7F808380818D7F808388E4809349
:10071000B80085E48093BC000895CF93DF9391E007
:100720009093B9018823B9F0C091B800D091BA0074
:100730008091BC008A7B8093BC0060E082E10E94D3
:100740008B0260E083E10E948B020E946F03D093D2
:10075000BA00C093B800DF91CF9108950895E09159
:10076000340280913302E81730F4F0E0EC56FE4F8B
:10077000808190E008958FEF9FEF0895909134026B
:10078000809133022FEF3FEF981748F4E92FF0E004
:10079000EC56FE4F208130E09F5F90933402C901F8
:1007A00008958091330290913402891B990B08952A
:1007B000CF92DF92EF92FF920F931F93CF93DF932D
:1007C0007C01CB018A0120919301222389F0EB0166
:1007D0006B01C40ED51ECC15DD0569F06991D701FA
:1007E000ED91FC910190F081E02DC7010995F3CFC7
:1007F000642F0E944803C801DF91CF911F910F9190
:10080000FF90EF90DF90CF900895CF93DF931F92EA
:10081000CDB7DEB76983209193012223F9F02091AF
:100820003102203258F021E030E0FC013383228392
:1008300090E080E00F90DF91CF9108958091320297
:10084000E82FF0E0ED58FE4F998190838F5F809301
:1008500032028093310281E090E0ECCF61E0CE0182
:1008600001960E944803F7CFCF92DF92EF92FF925A
:100870000F931F93CF93DF93FC01C48121E020935A
:100880009301C0937201109232021092310283855B
:10089000682B86E592E00E940504D0913102D132A6
:1008A00008F092C00E94E5026B017C018091FE017C
:1008B000811165C082E08093FE0181E08093000297
:1008C0008FEF8093FD0110922202D0932102A3E7C3
:1008D000B1E0E1E0F2E080E0D81385C0109223029D
:1008E00080912302CC0FC82BC09323028091FF017B
:1008F000813009F07CC01092FF010E94E5026B017B
:100900007C01809123028093BB008091B50190917E
:10091000B601A091B701B091B801892B8A2B8B2B1E
:1009200099F00E94E5020091B5011091B601209165
:10093000B7013091B8016C197D098E099F0906171E
:10094000170728073907E0F18091BC0083FDD9CF54
:1009500085EC8093BC000E94E5026B017C018091D4
:10096000FE01823009F445C08091FD018F3F61F1A5
:100970008091FD01803241F18091FD0125C080917F
:10098000B5019091B601A091B701B091B801892B42
:100990008A2B8B2B09F48ACF0E94E5020091B501C6
:1009A0001091B6012091B7013091B8016C197D0901
:1009B0008E099F09061717072807390708F076CF11
:1009C0008091B4010E948D03109232021092310284
:1009D00010929301DF91CF911F910F91FF90EF90B3
:1009E000DF90CF9008959D9191938F5F75CF85EEA5
:1009F000B0CF8091B5019091B601A091B701B091AF
:100A0000B801892B8A2B8B2B09F4A9CF0E94E50210
:100A10000091B5011091B6012091B7013091B80154
:100A20006C197D098E099F090617170728073907D2
:100A300008F095CFC5CF089590E080E0089564EC6C
:100A400070E08CE00E948D006AEF70E080E090E042
:100A50000E940A038CE00E94B90264E670E080E024
:100A600090E00E940A0364EC70E08CE00E948D002C
:100A700068EC70E080E090E00E940A038CE00E9445
:100A8000B90262E370E080E090E00E940A0366E051
:100A900071E08CE00E948D0068EE73E080E090E0F1
:100AA0000E940A038CE00C94B902009769F0FC01E3
:100AB00001900020E9F73197AF01481B590BBC01A9
:100AC00084E692E00C940C0290E080E0089585EDBD
:100AD0008093BC008091B5019091B601A091B701BF
:100AE000B091B8010796A11DB11D23E0B695A79559
:100AF000979587952A95D1F72091BC0024FD03C0D6
:100B00001092FE0108954091B5015091B601609197
:100B1000B7017091B801452B462B472B69F300971D
:100B2000A105B10541F02AE22A95F1F700C001972D
:100B3000A109B109E1CF8091B4010C948D030F9309
:100B40001F93CF938C01C62F0E9434046C2F6460D6
:100B5000C8010E9434046C2F6B7FC8010E943404CA
:100B600083EC90E00197F1F7CF911F910F910895D9
:100B70000F931F93CF93DF938C01D62FC42F607FE9
:100B8000642B0E949F0580E1D89FB00111246C2B3B
:100B9000C801DF91CF911F910F910C949F05CF93C6
:100BA000DF93CDB7DEB728970FB6F894DEBF0FBE40
:100BB000CDBF98E0EBE0F1E0DE01119601900D92DF
:100BC0009A95E1F790916C02961708F46FEF262F33
:100BD00030E0220F331F41E050E04C0F5D1F240F27
:100BE000351FF9016081680F606840E084E692E09B
:100BF00028960FB6F894DEBF0FBECDBFDF91CF9120
:100C00000C94B80540E061E084E692E00E94B805EB
:100C10008BE39FE10197F1F708950E94020666E0D9
:100C200071E08CE00E948D0068EC70E080E090E064
:100C30000E940A038CE00E94B90262E370E080E047
:100C400090E00E940A0360E084E00E94CF0581E307
:100C500091E00E9455058AE391E00E94550561E00C
:100C600086E00E94CF0583E491E00E94550564EC84
:100C700070E08CE00E948D006AEF70E080E090E010
:100C80000E940A038CE00E94B90262E370E080E0F7
:100C900090E00E940A030E94020666E071E08CE088
:100CA0000E948D0068EC70E080E090E00E940A03F2
:100CB0008CE00E94B90262E370E080E090E00E9464
:100CC0000A0360E084E00E94CF0581E391E00E9486
:100CD00055058AE391E00E94550561E086E00E9497
:100CE000CF0583E491E00E94550564EC70E08CE050
:100CF0000E948D006AEF70E080E090E00E940A039D
:100D00008CE00E94B90262E370E080E090E00E9413
:100D10000A030E94020666E071E08CE00E948D00EA
:100D200060E971E080E090E00E940A038CE00E949C
:100D3000B90264E670E080E090E00E940A0360E09F
:100D400084E00E94CF0581E391E00E9455058AE38B
:100D500091E00E94550561E086E00E94CF0583E4A2
:100D600091E00E94550566E071E08CE00E948D00E4
:100D700060E971E080E090E00E940A038CE00E944C
:100D8000B90268EE73E080E090E00E940A03F9CFB8
:100D90000E94020660E083E00E94CF0563E970E0F4
:100DA0008CE00E948D0088E491E00E9455056AEF76
:100DB00070E080E090E00E940A038CE00E94B9029B
:100DC00068E572E080E090E00E940A0363E970E069
:100DD0008CE00E948D008DE491E00E94550568EC46
:100DE00070E080E090E00E940A038CE00E94B9026B
:100DF00062E370E080E090E00E940A0361E470E04A
:100E00008CE00E948D008FE491E00E94550560ED1A
:100E100077E080E090E00E940A038CE00E94B90233
:100E200068EB7BE080E090E00E940A0320913F02A3
:100E3000309140028091410290914202A9014D5FA0
:100E40005F4F4817590714F40E940D060396821746
:100E50009307D4F30E94020660E085E00E94CF056C
:100E600085E591E00E94550561E086E00E94CF058E
:100E70008CE591E00E94550561E470E08CE00E94F1
:100E80008D006AEF70E080E090E00E940A038CE041
:100E90000E94B90268E572E080E090E00E940A03D7
:100EA00061E470E08CE00E948D0068EC70E080E00E
:100EB00090E00E940A038CE00E94B90262E370E0B5
:100EC00080E090E00E940A0363E970E08CE00E94F9
:100ED0008D0060ED77E080E090E00E940A038CE0F6
:100EE0000E94B90268EE73E080E090E00E940A037D
:100EF000F9CF41E00E94B80581E090E008950E949A
:100F00003C030E94560D60933B0270933C02809319
:100F10003D0290933E0229E334EB48E65FE36091A3
:100F20003702709138028091390290913A020E9402
:100F3000E90D6093370270933802809339029093E1
:100F40003A020E94410C64E070E00E947A0E909395
:100F500044028093430264EC70E08CE00E948D00B8
:100F60006AEF70E080E090E00E940A038CE00C944D
:100F7000B902CF93DF930E94020660E080E00E94F6
:100F8000CF0581E691E00E94550561E080E00E9476
:100F9000CF0560916202709163024AE08091410244
:100FA000909142020E94510C8091620290916302E2
:100FB0000E945505C0913F02D091400261E08FE050
:100FC000CA30D1050CF08EE00E94CF05609162021C
:100FD000709163024AE0CE010E94510C809162023E
:100FE00090916302DF91CF910C9455051F920F925F
:100FF0000FB60F9211242F933F934F935F936F93EC
:101000007F938F939F93AF93BF93EF93FF938091C1
:101010004A0290914B02A0914C02B0914D02892B53
:101020008A2B8B2BD1F190914502E0914602F091F1
:10103000470280818927808380914A0290914B02E8
:10104000A0914C02B0914D02181619061A061B0603
:101050009CF480914A0290914B02A0914C02B09175
:101060004D020197A109B10980934A0290934B0266
:10107000A0934C02B0934D02FF91EF91BF91AF91BD
:101080009F918F917F916F915F914F913F912F91A0
:101090000F900FBE0F901F901895809100010E9435
:1010A000B902EACF1F920F920FB60F9211242F931D
:1010B0003F938F939F93AF93BF938091250290911D
:1010C0002602A0912702B09128023091240223E049
:1010D000230F2D3758F50196A11DB11D2093240231
:1010E0008093250290932602A0932702B0932802B2
:1010F0008091290290912A02A0912B02B0912C029A
:101100000196A11DB11D8093290290932A02A093FC
:101110002B02B0932C02BF91AF919F918F913F9181
:101120002F910F900FBE0F901F90189526E8230F58
:101130000296A11DB11DD2CF1F920F920FB60F9232
:1011400011242F933F934F935F936F937F938F93CC
:101150009F93AF93BF93EF93FF938091B900887FE4
:10116000803609F44AC0F0F5883209F4A7C018F5B2
:10117000803109F49BC0B8F4882309F4F9C08830A1
:1011800009F494C0FF91EF91BF91AF919F918F911E
:101190007F916F915F914F913F912F910F900FBE73
:1011A0000F901F901895883109F488C0803251F74C
:1011B0008093FD0114C0803409F49DC040F4803355
:1011C000B9F38833F9F68093FD0185ECB0C0803522
:1011D00009F485C0883509F496C0883499F60E94D0
:1011E0006705D0CF883909F48CC038F5883729F0E5
:1011F00050F4883611F0803729F683E08093FE01A1
:101200001092FC0157C0883809F47BC0803919F06E
:10121000803809F0B7CF8091FC01803208F071C0AE
:10122000E091FC0181E08E0F8093FC018091BB0076
:10123000F0E0E452FE4F80833DC0803B39F0E0F4A3
:10124000803A09F479C0883A09F09CCF84E0809311
:10125000FE011092DB011092DA01E0912F02F09171
:10126000300209958091DA0181110FC081E08093ED
:10127000DA011092BA0109C0803C09F4A6CF883C7B
:1012800009F4A3CF883B09F07DCFE091DB0181E039
:101290008E0F8093DB01F0E0E654FE4F8081809357
:1012A000BB009091DB018091DA0129C0809123027B
:1012B0008093BB0085EC8093BC0064CF90912202A8
:1012C00080912102981758F5E091220281E08E0F5B
:1012D00080932202F0E0EF5FFD4F8081E9CFE09143
:1012E000220281E08E0F809322028091BB00F0E009
:1012F000EF5FFD4F80839091220280912102981729
:10130000C8F285E8D8CFE091220281E08E0F809369
:1013100022028091BB00F0E0EF5FFD4F808380915F
:10132000000281115CCF81E08093FF0184EA809309
:10133000BC001092FE0126CF85EC8093BC00109279
:10134000FE018091FC01803230F4E091FC01F0E07C
:10135000E452FE4F10826091FC0170E0E0912D029A
:10136000F0912E028CED91E009951092FC010ACFCC
:101370001092FD0134CFE6E5F2E01382128288EE8E
:1013800093E0A0E0B0E084839583A683B78387E1F0
:1013900091E091838083E4E6F2E01382128289E295
:1013A00091E09183808387E2848380E1818782E07A
:1013B0008287138680E190E00E94A80E90936302DA
:1013C000809362020895789484B5826084BD84B568
:1013D000816084BD85B5826085BD85B5816085BD30
:1013E00080916E00816080936E00109281008091E8
:1013F0008100826080938100809181008160809370
:101400008100809180008160809380008091B10094
:1014100084608093B1008091B00081608093B000BF
:1014200080917A00846080937A0080917A00826053
:1014300080937A0080917A00816080937A00809115
:101440007A00806880937A001092C1001092340272
:101450001092330210923202109231020E946F03F6
:101460008AE092E09093300280932F028BE092E02A
:1014700090932E0280932D021092690280916E0249
:10148000823018F098E09093690280936C0262E3D6
:1014900070E080E090E00E940A0360916F0284E6B1
:1014A00092E00E94340468EE73E080E090E00E94D5
:1014B0000A0360E384E692E00E949F05CBE4D6E451
:1014C000CE010197F1F760E384E692E00E949F0568
:1014D0002197F1F760E384E692E00E949F0583E59F
:1014E00092E00197F1F760E284E692E00E949F05A6
:1014F00060916902606240E084E692E00E94B80573
:1015000084E080936A0240E06CE084E692E00E940E
:10151000B8050E94020682E080936B0240E066E01C
:1015200084E692E00E94B80540E062E084E692E042
:101530000E94B8058BE39FE10197F1F70E94020634
:1015400088E080936F0260E084E692E00E943404B9
:101550000E94B9071092420210924102109240027A
:1015600010923F0260ED77E080E090E00E940A0375
:101570000E941F05C0E0D0E0809143029091440298
:10158000009709F053C060E085E00E948B0260E0A4
:1015900086E00E948B020E947F0787E00E94620221
:1015A000019799F4809141029091420201969093A3
:1015B000420280934102809141029091420283361F
:1015C000910509F0FAC00E940D0688E00E946202AF
:1015D000019751F480913F029091400201969093BF
:1015E000400280933F02E7CF0E943C030E94560DC9
:1015F0006B017C0120913702309138024091390211
:1016000050913A0260913B0270913C0280913D0200
:1016100090913E020E94EA0C9B01AC01C701B60109
:101620000E94E40D87FDB9CF0E94C8068130910564
:10163000B9F561E085E00E948B0260E086E00E94DF
:101640008B020E947F0787E00E946202019709F4E3
:10165000A9CF88E00E946202019709F4BBCF0E94E3
:101660003C030E94560D6B017C01209137023091A2
:1016700038024091390250913A0260913B027091D8
:101680003C0280913D0290913E020E94EA0C9B0137
:10169000AC01C701B6010E94E40D87FDD4CFC4CFD1
:1016A0008230910509F04FC087E00E94620221E07C
:1016B000019709F020E02093360288E00E94620240
:1016C00021E0019709F020E02093350260E085E0F9
:1016D0000E948B0261E086E00E948B020E947F07DD
:1016E00087E00E946202209136022817190609F04D
:1016F00059CF88E00E94620220913502281719060E
:1017000009F068CF0E943C030E94560D6B017C01DA
:1017100020913702309138024091390250913A02BB
:1017200060913B0270913C0280913D0290913E029B
:101730000E94EA0C9B01AC01C701B6010E94E40DB6
:1017400087FDCECF71CF039709F035CF61E085E0FB
:101750000E948B0261E086E00E948B020E947F075C
:1017600087E00E946202019709F41CCF88E00E9482
:101770006202019709F42ECF0E943C030E94560D8D
:101780006B017C012091370230913802409139027F
:1017900050913A0260913B0270913C0280913D026F
:1017A00090913E020E94EA0C9B01AC01C701B60178
:1017B0000E94E40D87FDD4CF37CF80913F029091F6
:1017C00040028336910509F4FECE0E94B9070E94BB
:1017D0001F0568EB7BE080E090E00E940A03209701
:1017E00009F4CACE0E940000C7CE8F929F92AF929A
:1017F000BF92CF92DF92EF92FF92CF93DF93EC01F3
:10180000688179818A819B816115710581059105C6
:1018100021F464E279ED8BE597E02DE133EF41E0CF
:1018200050E00E94860C49015A019B01AC01A7EAD5
:10183000B1E40E94A50C6B017C01ACEEB4EFA501F4
:1018400094010E94B30CDC01CB018C0D9D1DAE1DDB
:10185000BF1DB7FF03C00197A109B04888839983D2
:10186000AA83BB839F77DF91CF91FF90EF90DF90AA
:10187000CF90BF90AF909F908F9008950E94F50BEE
:10188000089581E091E00E94F50B0895B0E0A0E09A
:101890008093010190930201A0930301B09304018E
:1018A0000895BB274A3031F4992322F4BDE2909584
:1018B00081959F4F0C945D0CBB27FB015527AA27F0
:1018C000880F991FAA1FA41710F0A41B83955051CD
:1018D000B9F7A05DAA3308F0A95DA193009779F745
:1018E000B111B1931192CB010C94760CDC01FC0187
:1018F000672F71917723E1F7329704C07C916D9344
:1019000070836291AE17BF07C8F30895052E97FB49
:101910001EF400940E949D0C57FD07D00E94B80C45
:1019200007FC03D04EF40C949D0C509540953095D7
:1019300021953F4F4F4F5F4F08959095809570953B
:1019400061957F4F8F4F9F4F08950E94DA0CA59F9E
:10195000900DB49F900DA49F800D911D11240895AA
:10196000B7FF0C94A50C0E94A50C821B930B089545
:10197000A1E21A2EAA1BBB1BFD010DC0AA1FBB1F93
:10198000EE1FFF1FA217B307E407F50720F0A21B05
:10199000B30BE40BF50B661F771F881F991F1A9472
:1019A00069F760957095809590959B01AC01BD019C
:1019B000CF010895A29FB001B39FC001A39F700DF6
:1019C000811D1124911DB29F700D811D1124911D47
:1019D00008955058BB27AA270E94010D0C94AA0D08
:1019E0000E949C0D38F00E94A30D20F039F49F3F17
:1019F00019F426F40C94990D0EF4E095E7FB0C9481
:101A0000930DE92F0E94BB0D58F3BA1762077307B5
:101A10008407950720F079F4A6F50C94DD0D0EF4FB
:101A2000E0950B2EBA2FA02D0B01B90190010C01EE
:101A3000CA01A0011124FF27591B99F0593F50F406
:101A4000503E68F11A16F040A22F232F342F44275E
:101A5000585FF3CF469537952795A795F040539556
:101A6000C9F77EF41F16BA0B620B730B840BBAF026
:101A70009150A1F0FF0FBB1F661F771F881FC2F791
:101A80000EC0BA0F621F731F841F48F487957795A5
:101A90006795B795F7959E3F08F0B0CF9395880F5F
:101AA00008F09927EE0F979587950895E89409C057
:101AB00097FB3EF490958095709561957F4F8F4F81
:101AC0009F4F9923A9F0F92F96E9BB279395F69597
:101AD000879577956795B795F111F8CFFAF4BB0F15
:101AE00011F460FF1BC06F5F7F4F8F4F9F4F16C079
:101AF000882311F096E911C0772321F09EE8872F03
:101B0000762F05C0662371F096E8862F70E060E0BE
:101B10002AF09A95660F771F881FDAF7880F969537
:101B2000879597F9089597F99F6780E870E060E0DE
:101B300008959FEF80EC089500240A941616170666
:101B400018060906089500240A94121613061406AE
:101B500005060895092E0394000C11F4882352F011
:101B6000BB0F40F4BF2B11F460FF04C06F5F7F4FC9
:101B70008F4F9F4F089557FD9058440F551F59F0B0
:101B80005F3F71F04795880F97FB991F61F09F3F6A
:101B900079F087950895121613061406551FF2CF93
:101BA0004695F1DF08C0161617061806991FF1CFE3
:101BB00086957105610508940895E894BB2766270A
:101BC0007727CB0197F908950E94560E08F48FEFFE
:101BD00008950E94FC0D0C94AA0D0E949C0D38F0F3
:101BE0000E94A30D20F0952311F00C94930D0C94FA
:101BF000990D11240C94DE0D0E94BB0D70F3959F7E
:101C0000C1F3950F50E0551F629FF001729FBB27F3
:101C1000F00DB11D639FAA27F00DB11DAA1F649F8F
:101C20006627B00DA11D661F829F2227B00DA11D42
:101C3000621F739FB00DA11D621F839FA00D611DC8
:101C4000221F749F3327A00D611D231F849F600DE9
:101C5000211D822F762F6A2F11249F5750409AF012
:101C6000F1F088234AF0EE0FFF1FBB1F661F771F9E
:101C7000881F91505040A9F79E3F510580F00C9469
:101C8000930D0C94DE0D5F3FE4F3983ED4F38695FC
:101C900077956795B795F795E7959F5FC1F7FE2B09
:101CA000880F911D9695879597F90895990F0008CB
:101CB000550FAA0BE0E8FEEF16161706E807F9071E
:101CC000C0F012161306E407F50798F0621B730BB9
:101CD000840B950B39F40A2661F0232B242B252B3A
:101CE00021F408950A2609F4A140A6958FEF811DDD
:101CF000811D089597FB072E16F4009407D077FDF9
:101D000009D00E948E0E07FC05D03EF49095819577
:101D10009F4F0895709561957F4F0895AA1BBB1B37
:101D200051E107C0AA1FBB1FA617B70710F0A61BDB
:101D3000B70B881F991F5A95A9F780959095BC01FC
:101D4000CD010895EE0FFF1F0590F491E02D099449
:101D50000F931F93CF93DF938230910510F482E0AD
:101D600090E0E0917202F091730230E020E0B0E088
:101D7000A0E0309799F42115310509F44AC0281BD9
:101D8000390B24303105D8F58A819B8161157105A5
:101D900089F1FB0193838283FE0111C0408151814F
:101DA0000281138148175907E0F04817590799F441
:101DB000109761F012960C93129713961C9332961B
:101DC000CF01DF91CF911F910F910895009372027F
:101DD00010937302F4CF2115310551F042175307C8
:101DE00038F0A901DB019A01BD01DF01F801C1CF83
:101DF000EF01F9CF9093730280937202CDCFFE0171
:101E0000E20FF31F81939193225031093983288384
:101E1000D7CF2091700230917102232B41F4209191
:101E200007013091080130937102209370022091D4
:101E30000501309106012115310541F42DB73EB75A
:101E40004091090150910A01241B350BE091700269
:101E5000F0917102E217F307A0F42E1B3F0B281735
:101E6000390778F0AC014E5F5F4F2417350748F013
:101E70004E0F5F1F509371024093700281939193B4
:101E80009FCFF0E0E0E09CCFCF93DF930097E9F0A5
:101E9000FC01329713821282A0917202B0917302F8
:101EA000ED0130E020E01097A1F420813181820F14
:101EB000931F20917002309171022817390709F0A1
:101EC00061C0F0937102E0937002DF91CF910895A9
:101ED000EA01CE17DF07E8F54A815B819E014115D3
:101EE0005105B1F7E901FB83EA8349915991C40F88
:101EF000D51FEC17FD0761F4808191810296840F54
:101F0000951FE90199838883828193819B838A83CA
:101F1000F0E0E0E012968D919C9113970097B9F54F
:101F20002D913C911197CD010296820F931F209124
:101F30007002309171022817390739F6309751F540
:101F40001092730210927202B0937102A093700209
:101F5000BCCFD383C28340815181840F951FC817A2
:101F6000D90761F44E5F5F4F88819981480F591FEF
:101F7000518340838A819B8193838283211531051C
:101F800009F0B0CFF0937302E09372029ECFFD018F
:0E1F9000DC01C0CF13821282D7CFF894FFCFAE
:101F9E00FF010000000000740280000000400014E9
:101FAE00005400000000000504D8031C05AE03D148
:101FBE0003BE03AF030000000079070C021C051BD3
:101FCE0005504C41594552203100504C4159455213
:101FDE0020320057494E53004641494C005500529D
:101FEE0045203A2800504C41594552004452415721
:101FFE0000504C41594552312020504C41594552C8
:02200E0032009E
:00000001FF
